{
  "contractName": "Lottery",
  "abi": [
    {
      "inputs": [],
      "stateMutability": "nonpayable",
      "type": "constructor"
    },
    {
      "inputs": [],
      "name": "admin",
      "outputs": [
        {
          "internalType": "address payable",
          "name": "",
          "type": "address"
        }
      ],
      "stateMutability": "view",
      "type": "function",
      "constant": true
    },
    {
      "inputs": [
        {
          "internalType": "uint256",
          "name": "",
          "type": "uint256"
        }
      ],
      "name": "players",
      "outputs": [
        {
          "internalType": "address payable",
          "name": "",
          "type": "address"
        }
      ],
      "stateMutability": "view",
      "type": "function",
      "constant": true
    },
    {
      "inputs": [],
      "name": "winner",
      "outputs": [
        {
          "internalType": "address payable",
          "name": "",
          "type": "address"
        }
      ],
      "stateMutability": "view",
      "type": "function",
      "constant": true
    },
    {
      "stateMutability": "payable",
      "type": "receive",
      "payable": true
    },
    {
      "inputs": [],
      "name": "getBalance",
      "outputs": [
        {
          "internalType": "uint256",
          "name": "",
          "type": "uint256"
        }
      ],
      "stateMutability": "view",
      "type": "function",
      "constant": true
    },
    {
      "inputs": [],
      "name": "pickWinner",
      "outputs": [],
      "stateMutability": "nonpayable",
      "type": "function"
    }
  ],
  "bytecode": "0x608060405234801561001057600080fd5b5033600160006101000a81548173ffffffffffffffffffffffffffffffffffffffff021916908373ffffffffffffffffffffffffffffffffffffffff160217905550610897806100616000396000f3fe60806040526004361061004e5760003560e01c806312065fe0146101985780635d495aea146101c3578063dfbf53ae146101da578063f71d96cb14610205578063f851a4401461024257610193565b3661019357600160009054906101000a900473ffffffffffffffffffffffffffffffffffffffff1673ffffffffffffffffffffffffffffffffffffffff163373ffffffffffffffffffffffffffffffffffffffff1614156100e4576040517f08c379a00000000000000000000000000000000000000000000000000000000081526004016100db906105a5565b60405180910390fd5b670de0b6b3a7640000341461012e576040517f08c379a000000000000000000000000000000000000000000000000000000000815260040161012590610637565b60405180910390fd5b6000339080600181540180825580915050600190039060005260206000200160009091909190916101000a81548173ffffffffffffffffffffffffffffffffffffffff021916908373ffffffffffffffffffffffffffffffffffffffff160217905550005b600080fd5b3480156101a457600080fd5b506101ad61026d565b6040516101ba9190610670565b60405180910390f35b3480156101cf57600080fd5b506101d8610275565b005b3480156101e657600080fd5b506101ef6103dc565b6040516101fc91906106cc565b60405180910390f35b34801561021157600080fd5b5061022c60048036038101906102279190610718565b610402565b60405161023991906106cc565b60405180910390f35b34801561024e57600080fd5b50610257610441565b60405161026491906106cc565b60405180910390f35b600047905090565b60008080549050610284610467565b61028e9190610774565b8154811061029f5761029e6107a5565b5b9060005260206000200160009054906101000a900473ffffffffffffffffffffffffffffffffffffffff16600260006101000a81548173ffffffffffffffffffffffffffffffffffffffff021916908373ffffffffffffffffffffffffffffffffffffffff160217905550600260009054906101000a900473ffffffffffffffffffffffffffffffffffffffff1673ffffffffffffffffffffffffffffffffffffffff166108fc61034e61026d565b9081150290604051600060405180830381858888f19350505050158015610379573d6000803e3d6000fd5b50600067ffffffffffffffff811115610395576103946107d4565b5b6040519080825280602002602001820160405280156103c35781602001602082028036833780820191505090505b50600090805190602001906103d99291906104a1565b50565b600260009054906101000a900473ffffffffffffffffffffffffffffffffffffffff1681565b6000818154811061041257600080fd5b906000526020600020016000915054906101000a900473ffffffffffffffffffffffffffffffffffffffff1681565b600160009054906101000a900473ffffffffffffffffffffffffffffffffffffffff1681565b6000444260008054905060405160200161048393929190610824565b6040516020818303038152906040528051906020012060001c905090565b82805482825590600052602060002090810192821561051a579160200282015b828111156105195782518260006101000a81548173ffffffffffffffffffffffffffffffffffffffff021916908373ffffffffffffffffffffffffffffffffffffffff160217905550916020019190600101906104c1565b5b509050610527919061052b565b5090565b5b8082111561054457600081600090555060010161052c565b5090565b600082825260208201905092915050565b7f4f776e65722063616e277420706c6179207468652067616d6500000000000000600082015250565b600061058f601983610548565b915061059a82610559565b602082019050919050565b600060208201905081810360008301526105be81610582565b9050919050565b7f506c6561736520706179204f6e6c79203120657468657220746f20706c61792060008201527f7468652067616d65000000000000000000000000000000000000000000000000602082015250565b6000610621602883610548565b915061062c826105c5565b604082019050919050565b6000602082019050818103600083015261065081610614565b9050919050565b6000819050919050565b61066a81610657565b82525050565b60006020820190506106856000830184610661565b92915050565b600073ffffffffffffffffffffffffffffffffffffffff82169050919050565b60006106b68261068b565b9050919050565b6106c6816106ab565b82525050565b60006020820190506106e160008301846106bd565b92915050565b600080fd5b6106f581610657565b811461070057600080fd5b50565b600081359050610712816106ec565b92915050565b60006020828403121561072e5761072d6106e7565b5b600061073c84828501610703565b91505092915050565b7f4e487b7100000000000000000000000000000000000000000000000000000000600052601260045260246000fd5b600061077f82610657565b915061078a83610657565b92508261079a57610799610745565b5b828206905092915050565b7f4e487b7100000000000000000000000000000000000000000000000000000000600052603260045260246000fd5b7f4e487b7100000000000000000000000000000000000000000000000000000000600052604160045260246000fd5b6000819050919050565b61081e61081982610657565b610803565b82525050565b6000610830828661080d565b602082019150610840828561080d565b602082019150610850828461080d565b60208201915081905094935050505056fea2646970667358221220fc3388d329a9e623b9e16d091a30c58fecae1af89bc29bf62859dc68b974b62564736f6c634300080b0033",
  "immutableReferences": {},
  "source": "// SPDX-License-Identifier: MIT\npragma solidity ^0.8.0;\n\ncontract Lottery{\n    address payable[] public players;\n    address payable public admin;\n    address payable public winner;\n    constructor(){\n        admin=payable(msg.sender);\n    }\n\n    receive() external payable\n    {\n        require(msg.sender!=admin,\"Owner can't play the game\");\n        require(msg.value == 1 ether,\"Please pay Only 1 ether to play the game\");\n\n        players.push(payable(msg.sender));\n    }\n    function getBalance() public view returns(uint){\n        return address(this).balance;\n    }\n\n    function random() internal view returns(uint){\n        return uint(keccak256(abi.encodePacked(block.difficulty, block.timestamp, players.length)));\n    }\n\n    function pickWinner() public{\n        // require(admin==msg.sender,\"You are not the owner\");\n        // require(players.length>=3,\"Players should be atleast 3\");\n       \n       winner=players[random()%players.length];\n       winner.transfer(getBalance());\n\n       players=new address payable[](0);\n       \n    }\n    \n}",
  "sourcePath": "/Users/rohitpatil/Desktop/Development/blockchain-projects/lottery-game/src/contracts/Lottery.sol",
  "compiler": {
    "name": "solc",
    "version": "0.8.11+commit.d7f03943.Emscripten.clang"
  },
  "schemaVersion": "3.4.4",
  "updatedAt": "2021-12-24T09:06:30.498Z",
  "networkType": "ethereum",
  "devdoc": {
    "kind": "dev",
    "methods": {},
    "version": 1
  },
  "userdoc": {
    "kind": "user",
    "methods": {},
    "version": 1
  }
}